S01100006E72665F786D6567612E737265635C
S1130000FDC000001AC1000018C1000016C10000A4
S113001014C1000012C1000010C100000EC1000094
S11300200CC100000AC1000008C1000006C10000A4
S113003004C1000002C1000000C10000FEC00000B5
S1130040FCC00000FAC00000F8C00000F6C00000C8
S1130050F4C00000F2C00000F0C00000EEC00000D8
S1130060ECC00000EAC00000E8C00000E6C00000E8
S1130070E4C00000E2C00000E0C00000DEC00000F8
S1130080DCC00000DAC00000D8C00000D6C0000008
S1130090D4C00000D2C00000D0C00000CEC0000018
S11300A0CCC00000CAC00000C8C00000C6C0000028
S11300B0C4C00000C2C00000C0C00000BEC0000038
S11300C0BCC00000BAC00000B8C00000B6C0000048
S11300D0B4C00000B2C00000B0C00000AEC0000058
S11300E0ACC00000AAC00000A8C00000A6C0000068
S11300F0A4C00000A2C00000A0C000009EC0000078
S11301009CC000009AC0000098C0000096C0000087
S113011094C0000092C0000090C000008EC0000097
S11301208CC000008AC0000088C0000086C00000A7
S113013084C0000082C0000080C000007EC00000B7
S11301407CC000007AC0000078C0000076C00000C7
S113015074C0000072C0000070C000006EC00000D7
S1130160F1C200006AC0000068C0000066C0000060
S113017064C0000062C0000060C000005EC00000F7
S11301805CC000005AC0000058C0000056C0000007
S113019054C0000052C0000050C000004EC0000017
S11301A04CC000004AC0000048C0000046C0000027
S11301B044C0000042C0000040C000003EC0000037
S11301C03CC000003AC0000038C0000036C0000047
S11301D034C0000032C0000030C000002EC0000057
S11301E02CC000002AC0000028C0000026C0000067
S11301F024C0000022C0000020C0000011241FBE43
S1130200CFEFCDBFDFE3DEBF00E00CBF15E2A0E01F
S1130210B0E2EEE6FDE000E00BBF02C007900D92F5
S1130220A43AB107D9F725E2A4EAB5E201C01D92C8
S1130230A83CB207E1F767D298C5E2CE8DD2E0E4DC
S1130240F6E080818260808308958EE090E2D2D2CD
S1130250F5DF82E0E0E4F6E086839DC20895CF9363
S1130260DF93D82FC62F92D28D2F8F71806284D2C4
S11302708C2F82D290D2DF91CF9108951F93CF9388
S1130280DF9384D282EE78D286D2C0E4D6E012E044
S11302901E8360E787E0E3DF6BE080E0E0DF1D833F
S11302A0DF91CF911F910895CF93DF93C82FD62F5D
S11302B01F926F931F928F932CE230E23F932F9300
S11302C088D2D093C1256C2F85E0C9DF60E081E13D
S11302D0C6DF6091C12582E1C2DF60E083E1BFDF58
S11302E060E084E1BCDF60E085E1B9DF60E086E1E5
S11302F0B6DF66E086E0B3DF68E080E0B0DF63E0AD
S113030081E0ADDF63E082E0AADF6FE484E0A7DF91
S113031060E08CE1A4DFB2DF84E790E26BD20F905F
S11303200F900F900F900F900F90DF91CF91089541
S11303300F931F93CF93DF9329D280E01DD20DEA50
S113034015E2C4EAD5E28FEF17D28993C017D1071B
S1130350D1F721D28AE08A95F1F718D281E10CD243
S1130360CEEAD5E20AEB15E28FEF06D28993C017E5
S1130370D107D1F710D28AE08A95F1F707D28CE140
S1130380FBD1C5EBD5E20CEB15E28FEFF5D18993E8
S1130390C017D107D1F7FFD1DF91CF911F910F91F2
S11303A00895C6DF8BE890E225D28091AC2580FFCA
S11303B004C089EA90E21EC2089589EB90E21AC251
S11303C00895CF93DF93B4DF8DEC90E213D2CBEAA0
S11303D0D5E288818F701F928F9384EF90E29F9370
S11303E08F93F7D1888182958F701F928F938DE0C0
S11303F091E29F938F93EDD18DB79EB708968DBFF1
S11304009EBFDF91CF91089593DF8FE291E2F2D105
S11304108091AA2580FF03C087E491E2EBD180910B
S1130420AA258E708E3021F48AE591E2E3D115C0BD
S11304308C3021F489E691E2DDD10FC08091AA25A8
S1130440869587701F928F9383E791E29F938F9392
S1130450C0D10F900F900F900F908091AA2584FF28
S113046003C086EA91E2C6D18091AA2585FF03C024
S113047082ED91E2BFD18091AA2586FF03C08EEE62
S113048091E2B8C1089554DF8CE092E2B3D1809137
S1130490A92581FD04C088E292E2ACD103C08AE3BD
S11304A092E2A8D18091A92582FD04C08CE492E255
S11304B0A1D103C086E692E29DD18091A92584FF53
S11304C003C080E892E296D18091A92586FF03C0FB
S11304D08CE992E28FC108952BDF89EB92E28AD1F5
S11304E08091A8258F771F928F938DEC92E29F9332
S11304F08F936FD10F900F900F900F900895CF931B
S1130500DF9316DF81EE92E275D1C7EAD5E28881E6
S11305108F702AEF829FC00111249F938F9381E1F2
S113052093E29F938F9355D1888182958F701F9208
S11305308F9382E393E29F938F934BD18DB79EB7B2
S113054008968DBF9EBFDF91CF910895F1DE8FE4B1
S113055093E250D18091A6258370833021F481E702
S113056093E248C10895823021F483E993E242C1C1
S11305700895813021F485EB93E23CC1089587ED21
S113058093E238C10895D4DE8EEF93E233D18091A3
S1130590AD2580FF03C08DE194E22CD18091AD257F
S11305A081FF03C08DE294E225D18091AD2582FFC5
S11305B004C08CE394E21ED107C088E494E29F93C4
S11305C08F9307D10F900F908091AD2583FF03C0C7
S11305D084E594E20FD18091AD2584FF03C081E6C8
S11305E094E208D18091AD2585FF03C088E994E2A7
S11305F001C108959DDE8FEB94E2FCD08091A52586
S113060080FF03C082ED94E2F5D08091A52581FF9F
S113061003C085EE94E2EED08091A52582FF04C04C
S113062088EF94E2E7D007C088E494E29F938F9325
S1130630D0D00F900F908091A52583FF03C08BE04D
S113064095E2D8D08091A52584FF03C08EE195E280
S1130650D1D08091A52585FF03C081E395E2CAC06E
S1130660089566DE8091A42580FF03C08DE194E2A5
S1130670C1D08091A42581FF03C08DE294E2BAD059
S11306808091A42582FD04C08CE394E2B3D007C01A
S113069088E494E29F938F939CD00F900F90809165
S11306A0A42583FF03C084E594E2A4D08091A4250B
S11306B084FF03C081E694E29DD08091A42585FF48
S11306C003C088E994E296D08091A42586FF03C0F4
S11306D084E495E28FC00895CF93C82F8A3011F433
S11306E08DE0FADFE0EAF9E0918195FFFDCFC09358
S11306F0A00980E090E0CF910895E0E8F6E080E47E
S1130700818385830895F9DF4BD080E090E2809364
S1130710C4259093C52578948EE995E29F938F9391
S113072058D093DD63E082E0BFDD9BDF63DF2BDF26
S11307300DDFE5DED1DEA7DE67DE43DE32DE0F90BD
S11307400F90FFCF1F920F920FB60F9211240F90AC
S11307500FBE0F901F901895E0E4F6E088EB8183BC
S113076080E4828388EF868380E2868782E58093B3
S1130770C00888E085830895E0ECF8E083838281F3
S11307808823E9F3E0ECF8E08381089588E0E0E46D
S1130790F6E08683089588E0E0E4F6E08583089532
S11307A0E0E6F6E088E08583818384E086838283C3
S11307B01092A70999E19093A609E0EAF9E093E081
S11307C095839CE1948390E39383E0EAF0E0828351
S11307D00895CF93DF93CDB7DEB7FE0136966191CE
S11307E07191AF018091C4259091C52530D0DF91DE
S11307F0CF9108950F931F93CF93DF93E091C42576
S1130800F091C525238121FF1BC0EC0100E010E01D
S113081089916091C4257091C525DB011896ED91ED
S1130820FC911997882331F01995892B89F30FEFDF
S11308301FEFEECF8AE01995892B11F4C80102C08D
S11308408FEF9FEFDF91CF911F910F9108952F921A
S11308503F924F925F926F927F928F929F92AF924C
S1130860BF92CF92DF92EF92FF920F931F93CF9399
S1130870DF93CDB7DEB72C97CDBFDEBF7C016B0114
S11308808A01FC0116821782838181FFB0C1CE01E7
S113089001964C01F7019381F60193FD859193FF35
S11308A081916F01882309F49EC1853239F493FD47
S11308B0859193FF81916F01853221F4B70190E016
S11308C0C4D1E8CF512C312C20E02032A0F48B325B
S11308D069F030F4803259F0833269F420612CC01D
S11308E08D3239F0803339F4216026C022602460CF
S11308F023C0286021C027FD27C030ED380F3A30CF
S113090078F426FF06C0FAE05F9E300D1124532EC2
S113091013C08AE0389E300D1124332E20620CC09F
S11309208E3221F426FD5FC1206406C08C3611F49A
S1130930206802C0883641F4F60193FD859193FF47
S113094081916F018111C1CF982F9F7D9554933070
S113095028F40C5F1F4FFFE3F9830DC0833631F099
S1130960833771F0833509F057C021C0F8018081C5
S113097089830E5F1F4F44244394512C540114C0A7
S11309803801F2E06F0E711CF801A080B18026FFDF
S113099003C0652D70E002C06FEF7FEFC5012C87A7
S11309A049D12C0183012C852F77222E16C03801C2
S11309B0F2E06F0E711CF801A080B18026FF03C025
S11309C0652D70E002C06FEF7FEFC5012C8727D142
S11309D02C012C852068222E830123FC19C0832D31
S11309E090E048165906A0F4B70180E290E02DD1BA
S11309F03A94F5CFF50127FC859127FE81915F019B
S1130A00B70190E022D131103A94F1E04F1A510825
S1130A104114510479F7DEC0843611F0893631F57A
S1130A20F80127FF07C060817181828193810C5F87
S1130A301F4F08C060817181882777FD8095982FAA
S1130A400E5F1F4F2F76B22E97FF09C090958095A9
S1130A50709561957F4F8F4F9F4F2068B22E2AE08B
S1130A6030E0A40124D1A82EA81843C0853729F466
S1130A702F7EB22E2AE030E025C0F22FF97FBF2E60
S1130A808F36C1F018F4883579F0ADC0803719F08D
S1130A90883721F0A8C02F2F2061B22EB4FE0DC0DC
S1130AA08B2D8460B82E09C024FF0AC09F2F966046
S1130AB0B92E06C028E030E005C020E130E002C0D5
S1130AC020E132E0F801B7FE07C0608171818281C4
S1130AD093810C5F1F4F06C06081718180E090E0BC
S1130AE00E5F1F4FA401E3D0A82EA818FB2DFF779B
S1130AF0BF2EB6FE0BC02B2D2E7FA51450F4B4FED2
S1130B000AC0B2FC08C02B2D2E7E05C07A2C2B2DDA
S1130B1003C07A2C01C0752C24FF0DC0FE01EA0D20
S1130B20F11D8081803311F4297E09C022FF06C0A3
S1130B307394739404C0822F867809F0739423FD10
S1130B4012C020FF06C05A2C731418F4530C571803
S1130B50732C731460F4B70180E290E02C8775D095
S1130B6073942C85F6CF731410F4371801C0312C0C
S1130B7024FF11C0B70180E390E02C8766D02C8558
S1130B8022FF16C021FF03C088E590E002C088E779
S1130B9090E0B7010CC0822F867851F021FD02C08D
S1130BA080E201C08BE227FD8DE2B70190E04DD0D9
S1130BB0A51430F4B70180E390E047D05A94F8CFFD
S1130BC0AA94F401EA0DF11D8081B70190E03DD0B3
S1130BD0A110F6CF332009F45DCEB70180E290E096
S1130BE034D03A94F7CFF7018681978102C08FEF12
S1130BF09FEF2C96CDBFDEBFDF91CF911F910F9158
S1130C00FF90EF90DF90CF90BF90AF909F908F9028
S1130C107F906F905F904F903F902F900895FC01CC
S1130C200590615070400110D8F7809590958E0F13
S1130C309F1F0895FC016150704001900110D8F786
S1130C40809590958E0F9F1F08950F931F93CF93B8
S1130C50DF93182F092FEB018B8181FD03C08FEFE8
S1130C609FEF20C082FF10C04E815F812C813D81A7
S1130C70421753077CF4E881F9819F012F5F3F4FAE
S1130C8028833983108306C0E885F985812F199557
S1130C90892B29F72E813F812F5F3F4F2E833F837E
S1130CA0812F902FDF91CF911F910F910895FA0119
S1130CB0AA27283051F1203181F1E8946F936E7F97
S1130CC06E5F7F4F8F4F9F4FAF4FB1E03ED0B4E088
S1130CD03CD0670F781F891F9A1FA11D680F791FC9
S1130CE08A1F911DA11D6A0F711D811D911DA11DDA
S1130CF020D009F468943F912AE0269F11243019EA
S1130D00305D3193DEF6CF010895462F4770405D84
S1130D104193B3E00FD0C9F7F6CF462F4F70405D33
S1130D204A3318F0495D31FD4052419302D0A9F78E
S1130D30EACFB4E0A6959795879577956795BA9588
S1130D40C9F700976105710508959B01AC010A2E4E
S1130D5006945795479537952795BA95C9F7620F25
S1110D60731F841F951FA01D0895F894FFCFE4
S1130D6E00000002000000006C0300000000696E29
S1130D7E69636A616C697A61636A61206E72663254
S1130D8E346C30312E2E0030782578006B6F6E6601
S1130D9E6967757261636A61206E726632346C3192
S1130DAE30203A206B616E61B33A2025642C2064A6
S1130DBEB375676F9CE620737472756D69656E61A9
S1130DCE2064616E796368203D20256420626A7414
S1130DDEF3770A00757374617769656E69612072C1
S1130DEE656A65737472F377203A00525044202D6D
S1130DFE20526563696576656420706F776572202D
S1130E0E6465746563746F72000943757272696503
S1130E1E7220446574656374000943757272696562
S1130E2E72206E6F7420446574656374004F425370
S1130E3E455256455F5458202D205472616E736D81
S1130E4E6974206F62736572766520726567697363
S1130E5E7465720009436F756E74206C6F73742021
S1130E6E7061636B657473203A25640A0009436FDD
S1130E7E756E742072657472616E736D69747465C7
S1130E8E64207061636B657473203A25640A0053A1
S1130E9E54415455532D2053746174757320526507
S1130EAE676F7374657200095458204669666F2023
S1130EBE66756C6C20666C61670009525820466931
S1130ECE666F20656D70747900094E6F74207573AA
S1130EDE656400095258204669666F206E756D620E
S1130EEE657220202564207061796C6F61642061C5
S1130EFE7661696C61626C6520666F7220726561E1
S1130F0E64696E670A00094D6178696D756D206EAE
S1130F1E756D626572206F66205458207265747206
S1130F2E616E736D69747320696E74657272757017
S1130F3E740009446174612073656E6420545820F2
S1130F4E4649464F2069746572727570740009447F
S1130F5E6174612072656164792052582046494655
S1130F6E4F20696E746572727570740052465F53C9
S1130F7E455455502D205246205365747570205299
S1130F8E656769737465720009524620506F657205
S1130F9E203D202D313864426D0009524620506F99
S1130FAE6572203D202D313264426D0009646174F6
S1130FBE61207261746573207370656564203A20D4
S1130FCE314D6270730009646174612072617465DD
S1130FDE73207370656564203A20324D627073001D
S1130FEE0964617461207261746573207370656540
S1130FFE64203A203235306B6270730009436F6E91
S113100E74696E6F757320436172726965722074B0
S113101E72616E736D6974200052465F4348202DD1
S113102E205246204368616E6E656C20000952465C
S113103E204368616E656C6C203A20202564200A7A
S113104E0053455455505F52455452202D2053653C
S113105E747570206F66206175746F6D6174696349
S113106E2072657472616E736D697373696F6E202D
S113107E000952657472616E736D697373696F6E74
S113108E2064656C6179203A20252E3066207573B4
S113109E0A000952657472616E736D697373696FB8
S11310AE6E20436F756E74203A202564200A005317
S11310BE455455505F4157202D205365747570204B
S11310CE6F66204164647265732057696474687333
S11310DE000952582F54582061646472657373204A
S11310EE6669656C6420776964746873202D203595
S11310FE4220000952582F5458206164647265735B
S113110E73206669656C6420776964746873202D36
S113111E20344220000952582F54582061646472BE
S113112E657373206669656C64207769647468738B
S113113E202D20334220000952582F545820616428
S113114E6472657373206669656C64207769647470
S113115E6873202D20696C6C6567616C2000454EA8
S113116E5F52585F41444452202D20456E61626C9B
S113117E652052582041646472657373000950529D
S113118E494D5F5258206973207365740009505796
S113119E525F55502069732073657400094352439E
S11311AE20312062797465004352432032206279E3
S11311BE746573000943524320656E61626C656405
S11311CE00096974657272757074207768656E2093
S11311DE73656E64206D6178206E756D6265722024
S11311EE6F662072657472616E736D697420286502
S11311FE6E61626C6564290009696E74657272753C
S113120E7074207768656E20545820646174612070
S113121E73656E642028656E61626C656429004591
S113122E4E5F4141202D20456E61626C6520416305
S113123E6B0009456E61626C652041636B207069B9
S113124E706520300009456E61626C652041636BE8
S113125E207069706520310009456E61626C6520ED
S113126E41636B207069706520320009456E6162BE
S113127E6C652041636B20706970652033000945ED
S113128E6E61626C652041636B20706970652034F9
S113129E0009456E61626C652041636B2070697054
S11312AE6520350009696E746572727570742077E5
S11312BE68656E205258206461746120726563659E
S11312CE697665642028656E61626C656429002503
S11312DE64203A20256420202D2D2D3E00256420E7
S11312EE3A2025640A0072656164526567697374F5
S11312FE6572203A202564202564202564001B5B3A
S107130E324A00005B
S9030000FC
