S01100006E72665F786D6567612E737265635C
S1130000FDC000001BC1000019C1000017C10000A1
S113001015C1000013C1000011C100000FC1000090
S11300200DC100000BC1000009C1000007C10000A0
S113003005C1000003C1000001C10000FFC00000B1
S1130040FDC00000FBC00000F9C00000F7C00000C4
S1130050F5C00000F3C00000F1C00000EFC00000D4
S1130060EDC00000EBC00000E9C00000E7C00000E4
S1130070E5C00000E3C00000E1C00000DFC00000F4
S1130080DDC00000DBC00000D9C00000D7C0000004
S1130090D5C00000D3C00000D1C00000CFC0000014
S11300A0CDC00000CBC00000C9C00000C7C0000024
S11300B0C5C00000C3C00000C1C00000BFC0000034
S11300C0BDC00000BBC00000B9C00000B7C0000044
S11300D0B5C00000B3C00000B1C00000AFC0000054
S11300E0ADC00000ABC00000A9C00000A7C0000064
S11300F0A5C00000A3C00000A1C000009FC0000074
S11301009DC000009BC0000099C0000097C0000083
S113011095C0000093C0000091C000008FC0000093
S11301208DC000008BC0000089C0000087C00000A3
S113013085C0000083C0000081C000007FC00000B3
S11301407DC000007BC0000079C0000077C00000C3
S113015075C0000073C0000071C000006FC00000D3
S11301606DC700006BC0000069C0000067C00000DC
S113017065C0000063C0000061C000005FC00000F3
S11301805DC000005BC0000059C0000057C0000003
S113019055C0000053C0000051C000004FC0000013
S11301A04DC000004BC0000049C0000047C0000023
S11301B045C0000043C0000041C000003FC0000033
S11301C03DC000003BC0000039C0000037C0000043
S11301D035C0000033C0000031C000002FC0000053
S11301E02DC000002BC0000029C0000027C0000063
S11301F025C0000023C0000021C0000011241FBE40
S1130200CFEFCDBFDFE3DEBF00E00CBF1BE2A0E019
S1130210B0E2E0E7F6E100E00BBF02C007900D9208
S1130220AE3BB107D9F72BE2AEEBBBE201C01D92A6
S1130230A03FB207E1F7DED60C94360BE1CE8EE098
S113024090E29F938F9341D784E190E29F938F93A1
S11302508AE190E29F938F938FE691E29F938F932D
S113026034D783E690E29F938F932FD78091CF2B3F
S11302702DB73EB7265F3F4F2DBF3EBF80FF0BC05B
S113028082EE90E29F938F9320D789E991E233D74E
S11302900F900F900AC08DEC90E29F938F9315D727
S11302A08CEB91E228D70F900F908091CF2B81FF98
S11302B00BC082EE90E29F938F9307D780EE91E27A
S11302C01AD70F900F900AC08DEC90E29F938F93F2
S11302D0FCD683E092E20FD70F900F908091CF2B42
S11302E082FF0BC082EE90E29F938F93EED687E25B
S11302F092E201D70F900F900AC08DEC90E29F9389
S11303008F93E3D68AE492E2F6D60F900F90809111
S1130310CF2B83FF0BC082EE90E29F938F93D5D6B1
S11303208EE692E2E8D60F900F900AC08DEC90E230
S11303309F938F93CAD681E992E2DDD60F900F90F6
S11303408091CF2B84FF0BC082EE90E29F938F931A
S1130350BCD685EB92E2CFD60F900F900AC08DECFD
S113036090E29F938F93B1D688ED92E2C4D60F901A
S11303700F908091CF2B85FF0BC082EE90E29F936C
S11303808F93A3D68CEF92E2B6D60F900F900AC04B
S11303908DEC90E29F938F9398D68FE193E2ABD646
S11303A00F900F9083E690E29F938F938ED60F90D9
S11303B00F9008958EE090E29F938F9386D684E108
S11303C090E29F938F938AE190E29F938F9383E4CB
S11303D093E29F938F9379D683E690E29F938F93D2
S11303E074D68091D02B2DB73EB7265F3F4F2DBFDB
S11303F03EBF80FF0BC082EE90E29F938F9365D641
S113040085E693E278D60F900F900AC08DEC90E2C7
S11304109F938F935AD685E893E26DD60F900F90F1
S11304208091D02B81FF0BC082EE90E29F938F933B
S11304304CD685EA93E25FD60F900F900AC08DECFC
S113044090E29F938F9341D68EEB93E254D60F9014
S11304500F908091D02B8C7059F082EE90E29F9394
S11304608F9333D688ED93E246D60F900F900AC04F
S11304708DEC90E29F938F9328D687EF93E23BD63F
S11304800F900F9083E690E29F938F931ED60F9068
S11304900F900895DDD5E0E4F6E0808182608083EA
S11304A0089588E194E227D6F5DF82E0E0E4F6E0FF
S11304B08683EDC50895CF93DF93D82FC62FE2D559
S11304C08D2F8F718062D4D58C2FD2D5E0D5DF915A
S11304D0CF9108951F93CF93DF93D4D582EEC8D5DF
S11304E0D6D5C0E4D6E012E01E8360E787E0E3DF00
S11304F06BE080E0E0DF1D83DF91CF911F910895D1
S1130500CF93DF93C82FD62F1F926F931F928F9391
S113051026E334E23F932F93D8D5D093E52B6C2F69
S113052085E0C9DF60E081E1C6DF6091E52B82E10F
S1130530C2DF60E083E1BFDF60E084E1BCDF60E054
S113054085E1B9DF60E086E1B6DF66E086E0B3DF2F
S113055068E080E0B0DF63E081E0ADDF63E082E08B
S1130560AADF6FE484E0A7DF60E08CE1A4DFB2DF00
S11305708EE794E2C0D50F900F900F900F900F90DC
S11305800F90DF91CF910895DF92EF92FF920F9336
S11305901F93CF93DF930F2EFEEBEF2EFBE2FF2E84
S11305A0F02D07EC1BE2E701DC2EDE186BD58D2D58
S11305B08F715ED58FEF5CD5899369D5C017D1074C
S11305C099F7C8ECDBE211E15DD501E0010F812F61
S11305D08F714ED58FEF4CD5899359D50D3111F0CC
S11305E0102FF2CFCFECDBE21CE14CD501E0010F80
S11305F0812F8F713DD58FEF3BD5899348D5033239
S113060011F0102FF2CFDF91CF911F910F91FF9036
S1130610EF90DF900895B8DF8EE090E29F938F9380
S113062054D584E190E29F938F938AE190E29F9363
S11306308F9385E994E29F938F9347D583E690E265
S11306409F938F9342D58091C72B2DB73EB7265FDA
S11306503F4F2DBF3EBF80FF04C088EB94E24BC5E3
S1130660089588EC94E247C50895CF93DF938CDF17
S11306708EE090E29F938F9328D584E190E29F933C
S11306808F938AE190E29F938F938CED94E29F93F2
S11306908F931BD583E690E29F938F9316D5C6EC78
S11306A0DBE288818F701F928F9388E095E29F939D
S11306B08F930BD5888182958F701F928F9381E2DF
S11306C095E29F938F9301D58DB79EB742968DBFC8
S11306D09EBFDF91CF91089557DF8EE090E29F9304
S11306E08F93F3D484E190E29F938F938AE190E215
S11306F09F938F9383E495E29F938F93E6D483E64D
S113070090E29F938F93E1D48091C52B2DB73EB790
S1130710265F3F4F2DBF3EBF80FF03C080E695E2BA
S1130720EAD48091C52B8E708E3021F483E795E254
S1130730E2D415C08C3021F482E895E2DCD40FC0F9
S11307408091C52B869587701F928F938CE895E2D4
S11307509F938F93BAD40F900F900F900F90809126
S1130760C52B84FF03C08FEB95E2C5D48091C52BC4
S113077085FF03C08BEE95E2BED48091C52B86FF26
S113078003C087E096E2B7C40895FEDE8EE090E2EF
S11307909F938F939AD484E190E29F938F938AE1FD
S11307A090E29F938F9385E296E29F938F938DD4EB
S11307B083E690E29F938F9388D48091C42B2DB7C6
S11307C03EB7265F3F4F2DBF3EBF81FD04C086E488
S11307D096E291D403C088E596E28DD48091C42B2F
S11307E082FD04C08BE696E286D403C085E896E2D7
S11307F082D48091C42B84FF03C08FE996E27BD41A
S11308008091C42B86FF03C08BEB96E274C40895D9
S1130810CF93DF93B9DEC3E6D0E2DF93CF9355D411
S11308208EE090E29F938F9350D484E190E29F9363
S11308308F938AE190E29F938F9388ED96E29F9342
S11308408F9343D4DF93CF9340D48091C32B8F777E
S11308501F928F9381EF96E29F938F9336D4DF9309
S1130860CF9333D48DB79EB742968DBF9EBFDF9191
S1130870CF9108950F931F93CF93DF9385DEC3E643
S1130880D0E2DF93CF9321D48EE090E29F938F93B5
S11308901CD484E190E29F938F938AE190E29F932A
S11308A08F9385E097E29F938F930FD4DF93CF9339
S11308B00CD402EC1BE2F80180818F701F928F939D
S11308C08AE397E29F938F9300D4F8018081829505
S11308D08F701F928F938FE597E29F938F93F5D339
S11308E0DF93CF93F2D3EDB7FEB77696EDBFFEBF9D
S11308F0DF91CF911F910F91089546DE8EE090E233
S11309009F938F93E2D384E190E29F938F938AE144
S113091090E29F938F938CE797E29F938F93D5D325
S113092083E690E29F938F93D0D38091C12B837001
S11309302DB73EB7265F3F4F2DBF3EBF833021F416
S113094083EA97E2D8D30FC0823021F485EC97E292
S1130950D2D309C0813021F487EE97E2CCD303C00F
S113096089E098E2C8D383E690E29F938F93ADD356
S11309700F900F90089508DE8EE090E29F938F937E
S1130980A4D384E190E29F938F938AE190E29F93B2
S11309908F9380E398E29F938F9397D38091C02B9A
S11309A02DB73EB7285F3F4F2DBF3EBF80FF0AC023
S11309B082EE90E29F938F9388D384E598E29BD351
S11309C00F900F908091C02B81FF0AC082EE90E2BD
S11309D09F938F937AD388E698E28DD30F900F90EC
S11309E08091C02B82FF0AC082EE90E29F938F9386
S11309F06CD38CE798E27FD30F900F908091C02B3B
S1130A0083FF0AC082EE90E29F938F935ED380E9C6
S1130A1098E271D30F900F908091C02B84FF0AC08D
S1130A2082EE90E29F938F9350D384EA98E263D34B
S1130A300F900F908091C02B85FF0AC082EE90E248
S1130A409F938F9342D387EB98E255D30F900F90E7
S1130A5083E690E29F938F9338D30F900F9008957D
S1130A6093DD8EE090E29F938F932FD384E190E205
S1130A709F938F938AE190E29F938F938BEC98E2FC
S1130A809F938F9322D38091BF2B2DB73EB7285FBE
S1130A903F4F2DBF3EBF80FF0AC082EE90E29F937E
S1130AA08F9313D383EE98E226D30F900F90809107
S1130AB0BF2B81FF0AC082EE90E29F938F9305D3F0
S1130AC086EF98E218D30F900F908091BF2B82FF8E
S1130AD00AC082EE90E29F938F93F7D289E099E265
S1130AE00AD30F900F908091BF2B83FF0AC082EE30
S1130AF090E29F938F93E9D28CE199E2FCD20F901C
S1130B000F908091BF2B84FF0AC082EE90E29F93E6
S1130B108F93DBD28FE299E2EED20F900F90809107
S1130B20BF2B85FF0AC082EE90E29F938F93CDD2B4
S1130B3082E499E2E0D20F900F9083E690E29F93D3
S1130B408F93C3D20F900F900895EF92FF920F935B
S1130B501F93CF93DF9318DD83E690E29F938F93E7
S1130B60B4D20EEB1BE20F900F90C0E0D0E00F2E3A
S1130B70F5E5EF2EF9E2FF2EF02DCA3080F4F801EE
S1130B8080811F928F93DF93CF93FF92EF929DD238
S1130B900F900F900F900F900F900F9027C08C2FF5
S1130BA08A50873090F4F80180811F928F93CE0190
S1130BB007969F938F93FF92EF9287D20F900F9097
S1130BC00F900F900F900F9011C0F80180811F9229
S1130BD08F93CE010B969F938F93FF92EF9275D2D2
S1130BE00F900F900F900F900F900F9021960F5F22
S1130BF01F4FC231D10509F0C0CF8EE090E29F9320
S1130C008F9363D284E190E29F938F938AE190E281
S1130C109F938F9387E699E29F938F9356D2809107
S1130C20BE2B2DB73EB7285F3F4F2DBF3EBF80FF81
S1130C300BC08BE899E29F938F9347D281E999E2A5
S1130C405AD20F900F900AC081EA99E29F938F9332
S1130C503CD287EA99E24FD20F900F908091BE2B3D
S1130C6081FF0AC082EE90E29F938F932ED287EB8E
S1130C7099E241D20F900F908091BE2B82FD0BC060
S1130C8083E690E29F938F9320D286EC99E233D24D
S1130C900F900F900EC083E690E29F938F9315D22E
S1130CA082ED99E29F938F9310D20F900F900F9043
S1130CB00F908091BE2B83FF0AC082EE90E29F9337
S1130CC08F9303D28EED99E216D20F900F908091FC
S1130CD0BE2B84FF0AC082EE90E29F938F93F5D1DE
S1130CE08BEE99E208D20F900F908091BE2B85FF76
S1130CF00AC082EE90E29F938F93E7D182E29AE258
S1130D00FAD10F900F908091BE2B86FF0AC082EE1D
S1130D1090E29F938F93D9D189E49AE2ECD10F901A
S1130D200F9083E690E29F938F93CFD10F900F9013
S1130D30DF91CF911F910F91FF90EF9008950F9342
S1130D401F93CF93DF939ED18BE092D1C0EEDBE271
S1130D5005EE1BE28FEF8CD18993C017D107D1F731
S1130D6096D1DF91CF911F910F910895EF92FF9249
S1130D700F931F93CF93DF93E2DF8EE090E29F9374
S1130D808F93A3D184E190E29F938F938AE190E2C1
S1130D909F938F9383EA9AE29F938F9396D183E6EE
S1130DA090E29F938F9391D181ED9AE29F938F93D9
S1130DB08CD1C0EEDBE20F2EF5EEEF2EFBE2FF2E20
S1130DC0F02D8DB79EB70C968DBF9EBF0FED1AE226
S1130DD08991982F9F701F929F9382958F701F9275
S1130DE08F931F930F9371D10F900F900F900F90CB
S1130DF00F900F90CE15DF0559F78AE090E076D179
S1130E00DF91CF911F910F91FF90EF9008950F9371
S1130E101F93CF93DF9336D18AE02AD1CBEDDBE267
S1130E2000EE1BE28FEF24D18993C017D107D1F7CD
S1130E302ED1DF91CF911F910F910895EF92FF92E0
S1130E400F931F93CF93DF93E2DF8EE090E29F93A3
S1130E508F933BD184E190E29F938F938AE190E258
S1130E609F938F9384EE9AE29F938F932ED183E680
S1130E7090E29F938F9329D181ED9AE29F938F9370
S1130E8024D1CBEDDBE20F2EF0EEEF2EFBE2FF2EB2
S1130E90F02D8DB79EB70C968DBF9EBF0FED1AE255
S1130EA08991982F9F701F929F9382958F701F92A4
S1130EB08F931F930F9309D10F900F900F900F9062
S1130EC00F900F90CE15DF0559F78AE090E00ED110
S1130ED0DF91CF911F910F91FF90EF9008950F93A1
S1130EE01F93CF93DF93C6EEDBE21CE0CBD001E08F
S1130EF0010F812F8F71BCD08FEFBAD08993C7D0E7
S1130F00013111F0102FF2CFDF91CF911F910F918A
S1130F100895E5DF8EE090E29F938F93D6D084E12D
S1130F2090E29F938F938AE190E29F938F9380E165
S1130F309BE29F938F93C9D083E690E29F938F9314
S1130F40C4D08091E62B982F9F701F929F93829517
S1130F508F701F928F9385E59BE29F938F93B5D0FB
S1130F608091E72B982F9F701F929F9382958F708B
S1130F701F928F938EE69BE29F938F93A6D08091CE
S1130F80E82B982F9F701F929F9382958F701F92CA
S1130F908F9387E89BE29F938F9397D08091E92B5F
S1130FA0982F9F701F929F9382958F701F928F939B
S1130FB080EA9BE29F938F9388D08DB79EB78296E9
S1130FC08DBF9EBF0895CF93C82F8A3011F48DE052
S1130FD0FADFE0EAF9E0918195FFFDCFC093A00923
S1130FE080E090E0CF910895E0E8F6E080E481832A
S1130FF085830895F9DF50D080E090E28093EC2B54
S11310009093ED2B789489EB9BE29F938F935DD023
S113101048DA63E082E074DA98DD22DDACDC6DDC72
S113102029DCF6DBB2DB58DB20DBF5DA07DF9EDEFA
S113103070DF05D9BFD90F900F90FFCF1F920F9289
S11310400FB60F9211240F900FBE0F901F9018959A
S1131050E0E4F6E088EB818380E4828388EF868392
S113106080E2868782E58093C00888E085830895BE
S1131070E0ECF8E0838382818823E9F3E0ECF8E094
S11310808381089588E0E0E4F6E08683089588E0AB
S1131090E0E4F6E085830895E0E6F6E088E0858301
S11310A0818384E0868382831092A70999E19093D7
S11310B0A609E0EAF9E093E095839CE1948390E348
S11310C09383E0EAF0E082830895CF93DF93CDB772
S11310D0DEB7FE01369661917191AF018091EC2BE0
S11310E09091ED2B35D0DF91CF9108956091EC2B49
S11310F07091ED2B2BC20F931F93CF93DF93E0914D
S1131100EC2BF091ED2B238121FF1BC0EC0100E0BF
S113111010E089916091EC2B7091ED2BDB01189616
S1131120ED91FC911997882331F01995892B89F356
S11311300FEF1FEFEECF8AE01995892B11F4C80148
S113114002C08FEF9FEFDF91CF911F910F91089510
S11311502F923F924F925F926F927F928F929F92C3
S1131160AF92BF92CF92DF92EF92FF920F931F93B1
S1131170CF93DF93CDB7DEB72C97CDBFDEBF7C0115
S11311806B018A01FC0116821782838181FFB0C141
S1131190CE0101964C01F7019381F60193FD8591EF
S11311A093FF81916F01882309F49EC1853239F43C
S11311B093FD859193FF81916F01853221F4B701ED
S11311C090E0C4D1E8CF512C312C20E02032A0F49F
S11311D08B3269F030F4803259F0833269F4206143
S11311E02CC08D3239F0803339F4216026C022605E
S11311F0246023C0286021C027FD27C030ED380FAC
S11312003A3078F426FF06C0FAE05F9E300D1124D0
S1131210532E13C08AE0389E300D1124332E2062E1
S11312200CC08E3221F426FD5FC1206406C08C36CA
S113123011F4206802C0883641F4F60193FD8591CB
S113124093FF81916F018111C1CF982F9F7D955498
S1131250933028F40C5F1F4FFFE3F9830DC08336EE
S113126031F0833771F0833509F057C021C0F8019C
S1131270808189830E5F1F4F44244394512C540171
S113128014C03801F2E06F0E711CF801A080B18027
S113129026FF03C0652D70E002C06FEF7FEFC5012C
S11312A02C8749D12C0183012C852F77222E16C03F
S11312B03801F2E06F0E711CF801A080B18026FFA6
S11312C003C0652D70E002C06FEF7FEFC5012C876E
S11312D027D12C012C852068222E830123FC19C0E0
S11312E0832D90E048165906A0F4B70180E290E0FF
S11312F02DD13A94F5CFF50127FC859127FE8191F4
S11313005F01B70190E022D131103A94F1E04F1A15
S113131051084114510479F7DEC0843611F089363E
S113132031F5F80127FF07C06081718182819381C3
S11313300C5F1F4F08C060817181882777FD8095FD
S1131340982F0E5F1F4F2F76B22E97FF09C09095EE
S11313508095709561957F4F8F4F9F4F2068B22E77
S11313602AE030E0A40124D1A82EA81843C0853770
S113137029F42F7EB22E2AE030E025C0F22FF97F27
S1131380BF2E8F36C1F018F4883579F0ADC08037A0
S113139019F0883721F0A8C02F2F2061B22EB4FE97
S11313A00DC08B2D8460B82E09C024FF0AC09F2F66
S11313B09660B92E06C028E030E005C020E130E098
S11313C002C020E132E0F801B7FE07C060817181FC
S11313D0828193810C5F1F4F06C06081718180E020
S11313E090E00E5F1F4FA401E3D0A82EA818FB2D98
S11313F0FF77BF2EB6FE0BC02B2D2E7FA51450F405
S1131400B4FE0AC0B2FC08C02B2D2E7E05C07A2C77
S11314102B2D03C07A2C01C0752C24FF0DC0FE01B6
S1131420EA0DF11D8081803311F4297E09C022FF69
S113143006C07394739404C0822F867809F0739461
S113144023FD12C020FF06C05A2C731418F4530C49
S11314505718732C731460F4B70180E290E02C8762
S113146075D073942C85F6CF731410F4371801C01B
S1131470312C24FF11C0B70180E390E02C8766D0A3
S11314802C8522FF16C021FF03C088E590E002C02E
S113149088E790E0B7010CC0822F867851F021FDD7
S11314A002C080E201C08BE227FD8DE2B70190E02B
S11314B04DD0A51430F4B70180E390E047D05A949E
S11314C0F8CFAA94F401EA0DF11D8081B70190E0F0
S11314D03DD0A110F6CF332009F45DCEB70180E2F0
S11314E090E034D03A94F7CFF7018681978102C017
S11314F08FEF9FEF2C96CDBFDEBFDF91CF911F9171
S11315000F91FF90EF90DF90CF90BF90AF909F909E
S11315108F907F906F905F904F903F902F900895A1
S1131520FC010590615070400110D8F780959095AA
S11315308E0F9F1F0895FC016150704001900110AF
S1131540D8F7809590958E0F9F1F08950F931F9342
S1131550CF93DF93182F092FEB018B8181FD03C0FB
S11315608FEF9FEF20C082FF10C04E815F812C81DE
S11315703D81421753077CF4E881F9819F012F5F75
S11315803F4F28833983108306C0E885F985812F6E
S11315901995892B29F72E813F812F5F3F4F2E8389
S11315A03F83812F902FDF91CF911F910F91089549
S11315B0FA01AA27283051F1203181F1E8946F9380
S11315C06E7F6E5F7F4F8F4F9F4FAF4FB1E03ED026
S11315D0B4E03CD0670F781F891F9A1FA11D680FC4
S11315E0791F8A1F911DA11D6A0F711D811D911DF7
S11315F0A11D20D009F468943F912AE0269F11246C
S11316003019305D3193DEF6CF010895462F4770CF
S1131610405D4193B3E00FD0C9F7F6CF462F4F702A
S1131620405D4A3318F0495D31FD4052419302D088
S1131630A9F7EACFB4E0A69597958795779567952E
S1131640BA95C9F700976105710508959B01AC012E
S11316500A2E06945795479537952795BA95C9F755
S1131660620F731F841F951FA01D0895F894FFCF68
S11316700000000200000000E307000000001B5B04
S113168034336D001B5B34306D001B5B33306D00F5
S1131690257352585F50575F50305F5035202D20CE
S11316A04E756D626572206F662062797465732071
S11316B0696E205258207061796C6F616420696E84
S11316C020616C6C2064617461207069706573259D
S11316D0730A001B5B33376D000952585F50575F24
S11316E05030000952585F50575F5031000952582A
S11316F05F50575F5032000952585F50575F503364
S1131700000952585F50575F5034000952585F50D7
S1131710575F50350025734649464F5F5354415433
S11317205553202D204649464F20737461747573B8
S113173020726567697374657225730A001B5B33D5
S1131740316D000952585F4649464F20656D7074EB
S113175079001B5B33326D000952585F4649464F8E
S1131760206E6F7420656D707479000952585F465D
S113177049464F2066756C6C20000952585F4649F3
S1131780464F206E6F742066756C6C000954585F68
S11317904649464F20656D707479000954585F4678
S11317A049464F206E6F7420656D7074790009543A
S11317B0585F4649464F2066756C6C2000095458A2
S11317C05F4649464F206E6F742066756C6C0064EA
S11317D06F207370726177647A656E696120002589
S11317E07344594E5044202D2044796E616D6963D1
S11317F0207061796C6F61642064617461206C6530
S11318006E6774682025730A0009456E61626C6511
S11318102064796E616D696320646174612070690C
S113182070652030206C656E6774680009446973C4
S113183061626C652064796E616D696320646174B2
S11318406120706970652030206C656E6774680073
S113185009456E61626C652064796E616D6963200F
S11318606461746120706970652031206C656E67F5
S11318707468000944697361626C652064796E61FF
S11318806D69632064617461207069706520312022
S11318906C656E6774680009456E61626C652064EE
S11318A0796E616D6963206461746120706970652B
S11318B02032206C656E6774680009446973616244
S11318C06C652064796E616D696320646174612064
S11318D0706970652032206C656E67746800094514
S11318E06E61626C652064796E616D696320646108
S11318F0746120706970652033206C656E6774684C
S1131900000944697361626C652064796E616D6974
S113191063206461746120706970652033206C6594
S11319206E6774680009456E61626C652064796E47
S1131930616D69632064617461207069706520342D
S1131940206C656E677468000944697361626C6534
S11319502064796E616D69632064617461207069CB
S113196070652034206C656E6774680009456E618B
S1131970626C652064796E616D6963206461746171
S113198020706970652035206C656E677468000985
S113199044697361626C652064796E616D6963206A
S11319A06461746120706970652035206C656E67B0
S11319B0746800257346454154555245202D2046F0
S11319C06561747572652072656769737465727395
S11319D02025730A0009456E61626C657320746882
S11319E06520575F54585F5041594C4F41445F4EF6
S11319F04F41434B000944697361626C652074680C
S1131A006520575F54585F5041594C4F41445F4ED5
S1131A104F41434B0009456E61626C6520706179EA
S1131A206C6F616420776974682061636B0009449A
S1131A30697361626C65207061796C6F6164207791
S1131A406974682061636B0009456E61626C65208E
S1131A5064796E616D6963207061796C6F61642073
S1131A606C656E677468000944697361626C652013
S1131A702064796E616D6963207061796C6F616453
S1131A80206C656E67746800696E69636A616C696D
S1131A907A61636A61206E726632346C30312E2E44
S1131AA00030782578006B6F6E66696775726163C4
S1131AB06A61206E726632346C3130203A206B6178
S1131AC06E61B33A2025642C2064B375676F9CE67D
S1131AD020737472756D69656E612064616E7963DB
S1131AE068203D20256420626A74F3770A007573C8
S1131AF074617769656E69612072656A6573747271
S1131B00F377203A002573525044202D2052656308
S1131B10696576656420706F7765722064657465A5
S1131B2063746F7225730A00094375727269657272
S1131B302044657465637400094375727269657243
S1131B40206E6F74204465746563740025734F427E
S1131B5053455256455F5458202D205472616E737C
S1131B606D6974206F62736572766520726567694A
S1131B707374657225730A0009436F756E74206C63
S1131B806F7374207061636B657473203A25640A03
S1131B900009436F756E742072657472616E736DA3
S1131BA06974746564207061636B657473203A258D
S1131BB0640A0025735354415455532D20537461C2
S1131BC0747573205265676F7374657225730A00A8
S1131BD0095458204669666F2066756C6C20666CE3
S1131BE0616700095258204669666F20656D7074FC
S1131BF07900094E6F74207573656400095258208A
S1131C004669666F206E756D6265722020256420BA
S1131C107061796C6F616420617661696C61626C7A
S1131C206520666F722072656164696E670A0009D7
S1131C304D6178696D756D206E756D626572206F8A
S1131C40662054582072657472616E736D69747382
S1131C5020696E74657272757074000944617461F0
S1131C602073656E64205458204649464F20697499
S1131C7065727275707400094461746120726561E3
S1131C806479205258204649464F20696E74657223
S1131C907275707400257352465F53455455502D28
S1131CA020524620536574757020526567697374B9
S1131CB0657225730A0009524620506F6572203DF3
S1131CC0202D313864426D0009524620506F7765EB
S1131CD072203D202D313264426D000964617461CB
S1131CE0207261746573207370656564203A2031D5
S1131CF04D6270730009646174612072617465736C
S1131D00207370656564203A20324D627073000957
S1131D1064617461207261746573207370656564B5
S1131D20203A203235306B6270730009436F6E7451
S1131D30696E6F7573204361727269657220747283
S1131D40616E736D69742000257352465F434820A9
S1131D502D205246204368616E6E656C2573200AFF
S1131D6000095246204368616E656C6C203A20205D
S1131D702564200A00257353455455505F52455439
S1131D8052202D205365747570206F662061757420
S1131D906F6D617469632072657472616E736D69CD
S1131DA07373696F6E2573200A000952657472613A
S1131DB06E736D697373696F6E2064656C617920ED
S1131DC03A202564202A203235302075730A000910
S1131DD052657472616E736D697373696F6E2043BB
S1131DE06F756E74203A202564200A0025735345CC
S1131DF05455505F4157202D205365747570206FE2
S1131E00662041646472657320576964746873253D
S1131E10730A000952582F54582061646472657320
S1131E2073206669656C6420776964746873202D17
S1131E3020354220000952582F545820616464729E
S1131E40657373206669656C64207769647468736C
S1131E50202D20344220000952582F545820616408
S1131E606472657373206669656C64207769647451
S1131E706873202D20334220000952582F545820D3
S1131E8061646472657373206669656C6420776944
S1131E9064746873202D20696C6C6567616C200024
S1131EA02573454E5F52585F41444452202D2045CE
S1131EB06E61626C6520525820416464726573736C
S1131EC025730A0009456E61626C65206461746162
S1131ED0207069706520300009456E61626C652070
S1131EE064617461207069706520310009456E6118
S1131EF0626C6520646174612070697065203200D1
S1131F0009456E61626C652064617461207069705A
S1131F10652033001B6E61626C652064617461200E
S1131F207069706520340009456E61626C652064D7
S1131F3061746120706970652035002573454E5FBA
S1131F404141202D20456E61626C652041636B2503
S1131F50730A0009456E61626C652041636B2070F1
S1131F6069706520300009456E61626C65204163CB
S1131F706B207069706520310009456E61626C6583
S1131F802041636B207069706520320009456E61E1
S1131F90626C652041636B207069706520330009B1
S1131FA0456E61626C652041636B207069706520C9
S1131FB0340009456E61626C652041636B20706971
S1131FC070652035007461625B307825785D203D52
S1131FD020307825780A002573434F4E4649472020
S1131FE02D206F6E66696775726174696F6E2072F9
S1131FF06567697374657225730A001B5B33346DFE
S113200000095052494D5F5258206973207365741A
S1132010001B5B33356D00095052494D5F52582007
S1132020636C6561722000095057525F55502069F6
S1132030732073657400094352432031206279741C
S1132040650043524320322062797465730009436A
S1132050524320656E61626C65640009697465723F
S113206072757074207768656E2073656E64206D78
S11320706178206E756D626572206F66207265747A
S113208072616E736D69742028656E61626C65643B
S1132090290009696E7465727275707420776865B9
S11320A06E20545820646174612073656E64202826
S11320B0656E61626C6564290009696E746572728B
S11320C0757074207768656E20525820646174615D
S11320D02072656365697665642028656E61626C4B
S11320E0656429002564203A20256420202D2D2DA7
S11320F03E002564203A2025640A0072656164521A
S113210065676973746572203A202564202564200C
S1132110256400257352585F414444525F50312076
S11321202D20526563656976652061646472657308
S11321307320646174612070697065203125730AAD
S1132140000941646472657373203A203078002575
S113215078257800257352585F414444525F5030CB
S1132160202D20526563697665206164647265730D
S113217020646174612070697065203025730A00E1
S1132180257352585F414444525F50325F503520AA
S11321902D20526563656976652061646472657398
S11321A073206461746120706970652032202D2071
S11321B035206C6173742062797465206F662035F4
S11321C04225730A0009416464726573732070695F
S11321D0706520323A203078257825780A00094144
S11321E0646472657373207069706520333A2030BB
S11321F078257825780A0009416464726573732030
S11322007069706520343A203078257825780A0082
S11322100941646472657373207069706520353A8E
S1112220203078257825780A001B5B324A00AE
S9030000FC
