:10000000FDC000001AC1000018C1000016C10000A8
:1000100014C1000012C1000010C100000EC1000098
:100020000CC100000AC1000008C1000006C10000A8
:1000300004C1000002C1000000C10000FEC00000B9
:10004000FCC00000FAC00000F8C00000F6C00000CC
:10005000F4C00000F2C00000F0C00000EEC00000DC
:10006000ECC00000EAC00000E8C00000E6C00000EC
:10007000E4C00000E2C00000E0C00000DEC00000FC
:10008000DCC00000DAC00000D8C00000D6C000000C
:10009000D4C00000D2C00000D0C00000CEC000001C
:1000A000CCC00000CAC00000C8C00000C6C000002C
:1000B000C4C00000C2C00000C0C00000BEC000003C
:1000C000BCC00000BAC00000B8C00000B6C000004C
:1000D000B4C00000B2C00000B0C00000AEC000005C
:1000E000ACC00000AAC00000A8C00000A6C000006C
:1000F000A4C00000A2C00000A0C000009EC000007C
:100100009CC000009AC0000098C0000096C000008B
:1001100094C0000092C0000090C000008EC000009B
:100120008CC000008AC0000088C0000086C00000AB
:1001300084C0000082C0000080C000007EC00000BB
:100140007CC000007AC0000078C0000076C00000CB
:1001500074C0000072C0000070C000006EC00000DB
:1001600049C100006AC0000068C0000066C000000D
:1001700064C0000062C0000060C000005EC00000FB
:100180005CC000005AC0000058C0000056C000000B
:1001900054C0000052C0000050C000004EC000001B
:1001A0004CC000004AC0000048C0000046C000002B
:1001B00044C0000042C0000040C000003EC000003B
:1001C0003CC000003AC0000038C0000036C000004B
:1001D00034C0000032C0000030C000002EC000005B
:1001E0002CC000002AC0000028C0000026C000006B
:1001F00024C0000022C0000020C0000011241FBE47
:10020000CFEFCDBFDFE3DEBF00E00CBF10E2A0E028
:10021000B0E2EEE1FAE000E00BBF02C007900D9201
:10022000A63DB107D9F720E2A6EDB0E201C01D92CC
:10023000AD3DB207E1F7BBD0F0C3E2CEE5D0E0E4DC
:10024000F6E080818260808308958EE090E22AD17A
:10025000F5DF82E0E0E4F6E08683F5C00895CF9311
:10026000DF93D82FC62FEAD08D2F8F718062DCD01C
:100270008C2FDAD0E8D0DF91CF9108951F93CF93E0
:10028000DF93DCD082EED0D0DED0C0E4D6E012E046
:100290001E8360E787E0E3DF6BE080E0E0DF1D8343
:1002A000DF91CF911F910895CF93C82FC7D08C2F86
:1002B0008F71BAD08FEFB8D0C82FC5D08C2FCF9107
:1002C00008950F931F93CF93DF93C82FD62F1F92BC
:1002D0006F931F928F932CE230E23F932F93D1D0F4
:1002E000D093D6206C2F85E0BADF60E081E1B7DFE4
:1002F0006091D62082E1B3DF60E083E1B0DF60E0AF
:1003000084E1ADDF60E085E1AADF60E086E1A7DFA0
:1003100066E086E0A4DF68E080E0A1DF63E081E0E2
:100320009EDF63E082E09BDF6FE484E098DF60E0C3
:100330008CE195DFA3DF84E790E2B4D00F900F90BB
:100340000F900F900F900F90C0E0D0E00BE810E2FC
:100350008C2FAADF1F928F93DF93CF931F930F935E
:1003600090D021960F900F900F900F900F900F90BC
:10037000CD31D10569F7DF91CF911F910F9108958C
:10038000CF93C82F8A3011F48DE0FADFE0EAF9E06C
:10039000918195FFFDCFC093A00980E090E0CF91BF
:1003A0000895E0E8F6E080E4818385830895F9DF2D
:1003B0004FD080E090E28093D9209093DA20789417
:1003C00080ED90E29F938F935CD03FDF63E082E00B
:1003D00078DF34D080E028D036D030D082E324D00B
:1003E00032D02CD087E120D084E61ED02CD00F90C4
:1003F0000F90FFCF1F920F920FB60F9211240F9004
:100400000FBE0F901F901895E0E4F6E088EB818313
:1004100080E4828388EF868380E2868782E580930A
:10042000C00888E085830895E0ECF8E0838382814A
:100430008823E9F3E0ECF8E08381089588E0E0E4C4
:10044000F6E08683089588E0E0E4F6E08583089589
:10045000E0E6F6E088E08583818384E0868382831A
:100460001092A70999E19093A609E0EAF9E093E0D8
:1004700095839CE1948390E39383E0EAF0E08283A8
:100480000895CF93DF93CDB7DEB7FE013696619125
:100490007191AF018091D9209091DA2030D0DF9115
:1004A000CF9108950F931F93CF93DF93E091D920BD
:1004B000F091DA20238121FF1BC0EC0100E010E065
:1004C00089916091D9207091DA20DB011896ED9125
:1004D000FC911997882331F01995892B89F30FEF37
:1004E0001FEFEECF8AE01995892B11F4C80102C0E5
:1004F0008FEF9FEFDF91CF911F910F9108952F9272
:100500003F924F925F926F927F928F929F92AF92A3
:10051000BF92CF92DF92EF92FF920F931F93CF93F0
:10052000DF93CDB7DEB72C97CDBFDEBF7C016B016B
:100530008A01FC0116821782838181FFB0C1CE013E
:1005400001964C01F7019381F60193FD859193FF8C
:1005500081916F01882309F49EC1853239F493FD9E
:10056000859193FF81916F01853221F4B70190E06D
:10057000C4D1E8CF512C312C20E02032A0F48B32B2
:1005800069F030F4803259F0833269F420612CC074
:100590008D3239F0803339F4216026C02260246026
:1005A00023C0286021C027FD27C030ED380F3A3026
:1005B00078F426FF06C0FAE05F9E300D1124532E1A
:1005C00013C08AE0389E300D1124332E20620CC0F7
:1005D0008E3221F426FD5FC1206406C08C3611F4F2
:1005E000206802C0883641F4F60193FD859193FF9F
:1005F00081916F018111C1CF982F9F7D95549330C8
:1006000028F40C5F1F4FFFE3F9830DC0833631F0F0
:10061000833771F0833509F057C021C0F80180811C
:1006200089830E5F1F4F44244394512C540114C0FE
:100630003801F2E06F0E711CF801A080B18026FF36
:1006400003C0652D70E002C06FEF7FEFC5012C87FE
:1006500049D12C0183012C852F77222E16C0380119
:10066000F2E06F0E711CF801A080B18026FF03C07C
:10067000652D70E002C06FEF7FEFC5012C8727D199
:100680002C012C852068222E830123FC19C0832D88
:1006900090E048165906A0F4B70180E290E02DD111
:1006A0003A94F5CFF50127FC859127FE81915F01F2
:1006B000B70190E022D131103A94F1E04F1A51087D
:1006C0004114510479F7DEC0843611F0893631F5D2
:1006D000F80127FF07C060817181828193810C5FDF
:1006E0001F4F08C060817181882777FD8095982F02
:1006F0000E5F1F4F2F76B22E97FF09C09095809501
:10070000709561957F4F8F4F9F4F2068B22E2AE0E2
:1007100030E0A40124D1A82EA81843C0853729F4BD
:100720002F7EB22E2AE030E025C0F22FF97FBF2EB7
:100730008F36C1F018F4883579F0ADC0803719F0E4
:10074000883721F0A8C02F2F2061B22EB4FE0DC033
:100750008B2D8460B82E09C024FF0AC09F2F96609D
:10076000B92E06C028E030E005C020E130E002C02C
:1007700020E132E0F801B7FE07C06081718182811B
:1007800093810C5F1F4F06C06081718180E090E013
:100790000E5F1F4FA401E3D0A82EA818FB2DFF77F2
:1007A000BF2EB6FE0BC02B2D2E7FA51450F4B4FE29
:1007B0000AC0B2FC08C02B2D2E7E05C07A2C2B2D32
:1007C00003C07A2C01C0752C24FF0DC0FE01EA0D78
:1007D000F11D8081803311F4297E09C022FF06C0FB
:1007E0007394739404C0822F867809F0739423FD68
:1007F00012C020FF06C05A2C731418F4530C57185B
:10080000732C731460F4B70180E290E02C8775D0EC
:1008100073942C85F6CF731410F4371801C0312C63
:1008200024FF11C0B70180E390E02C8766D02C85AF
:1008300022FF16C021FF03C088E590E002C088E7D0
:1008400090E0B7010CC0822F867851F021FD02C0E4
:1008500080E201C08BE227FD8DE2B70190E04DD030
:10086000A51430F4B70180E390E047D05A94F8CF54
:10087000AA94F401EA0DF11D8081B70190E03DD00A
:10088000A110F6CF332009F45DCEB70180E290E0ED
:1008900034D03A94F7CFF7018681978102C08FEF69
:1008A0009FEF2C96CDBFDEBFDF91CF911F910F91AF
:1008B000FF90EF90DF90CF90BF90AF909F908F9080
:1008C0007F906F905F904F903F902F900895FC0124
:1008D0000590615070400110D8F7809590958E0F6B
:1008E0009F1F0895FC016150704001900110D8F7DE
:1008F000809590958E0F9F1F08950F931F93CF9310
:10090000DF93182F092FEB018B8181FD03C08FEF3F
:100910009FEF20C082FF10C04E815F812C813D81FE
:10092000421753077CF4E881F9819F012F5F3F4F05
:1009300028833983108306C0E885F985812F1995AE
:10094000892B29F72E813F812F5F3F4F2E833F83D5
:10095000812F902FDF91CF911F910F910895FA0170
:10096000AA27283051F1203181F1E8946F936E7FEE
:100970006E5F7F4F8F4F9F4FAF4FB1E03ED0B4E0DF
:100980003CD0670F781F891F9A1FA11D680F791F20
:100990008A1F911DA11D6A0F711D811D911DA11D31
:1009A00020D009F468943F912AE0269F1124301941
:1009B000305D3193DEF6CF010895462F4770405DDC
:1009C0004193B3E00FD0C9F7F6CF462F4F70405D8B
:1009D0004A3318F0495D31FD4052419302D0A9F7E6
:1009E000EACFB4E0A6959795879577956795BA95E0
:1009F000C9F700976105710508959B01AC010A2EA6
:100A000006945795479537952795BA95C9F7620F7C
:0E0A1000731F841F951FA01D0895F894FFCF3B
:100A1E000000000200000000C00100000000696E2E
:100A2E0069636A616C697A61636A61206E726632AB
:100A3E00346C30312E2E0030782578006B6F6E6658
:100A4E006967757261636A61206E726632346C31E9
:100A5E0030203A206B616E61B33A2025642C2064FD
:100A6E00B375676F9CE620737472756D69656E6100
:100A7E002064616E796368203D20256420626A746B
:100A8E00F3770A00757374617769656E6961207218
:100A9E00656A65737472F377203A007265676973DD
:100AAE007465725B25645D203D2030782578200AC0
:100ABE00002564203A20256420202D2D2D3E002572
:100ACE0064203A2025640A00726561645265676984
:100ADE0073746572203A20256420256420256400F5
:060AEE001B5B324A000010
:00000001FF
